{
  "contractName": "BoostedLiquidityPoolManager",
  "abi": [
    {
      "inputs": [
        {
          "internalType": "address",
          "name": "wavax_",
          "type": "address"
        },
        {
          "internalType": "address",
          "name": "party_",
          "type": "address"
        },
        {
          "internalType": "address",
          "name": "stableToken_",
          "type": "address"
        },
        {
          "internalType": "address",
          "name": "treasuryVester_",
          "type": "address"
        }
      ],
      "stateMutability": "nonpayable",
      "type": "constructor"
    },
    {
      "anonymous": false,
      "inputs": [
        {
          "indexed": true,
          "internalType": "address",
          "name": "previousOwner",
          "type": "address"
        },
        {
          "indexed": true,
          "internalType": "address",
          "name": "newOwner",
          "type": "address"
        }
      ],
      "name": "OwnershipTransferred",
      "type": "event"
    },
    {
      "inputs": [],
      "name": "avaxPartyPair",
      "outputs": [
        {
          "internalType": "address",
          "name": "",
          "type": "address"
        }
      ],
      "stateMutability": "view",
      "type": "function",
      "constant": true
    },
    {
      "inputs": [],
      "name": "avaxSplit",
      "outputs": [
        {
          "internalType": "uint256",
          "name": "",
          "type": "uint256"
        }
      ],
      "stateMutability": "view",
      "type": "function",
      "constant": true
    },
    {
      "inputs": [],
      "name": "avaxStableTokenPair",
      "outputs": [
        {
          "internalType": "address",
          "name": "",
          "type": "address"
        }
      ],
      "stateMutability": "view",
      "type": "function",
      "constant": true
    },
    {
      "inputs": [
        {
          "internalType": "uint256",
          "name": "",
          "type": "uint256"
        }
      ],
      "name": "distribution",
      "outputs": [
        {
          "internalType": "uint256",
          "name": "",
          "type": "uint256"
        }
      ],
      "stateMutability": "view",
      "type": "function",
      "constant": true
    },
    {
      "inputs": [],
      "name": "numPools",
      "outputs": [
        {
          "internalType": "uint256",
          "name": "",
          "type": "uint256"
        }
      ],
      "stateMutability": "view",
      "type": "function",
      "constant": true
    },
    {
      "inputs": [],
      "name": "owner",
      "outputs": [
        {
          "internalType": "address",
          "name": "",
          "type": "address"
        }
      ],
      "stateMutability": "view",
      "type": "function",
      "constant": true
    },
    {
      "inputs": [],
      "name": "party",
      "outputs": [
        {
          "internalType": "address",
          "name": "",
          "type": "address"
        }
      ],
      "stateMutability": "view",
      "type": "function",
      "constant": true
    },
    {
      "inputs": [],
      "name": "partySplit",
      "outputs": [
        {
          "internalType": "uint256",
          "name": "",
          "type": "uint256"
        }
      ],
      "stateMutability": "view",
      "type": "function",
      "constant": true
    },
    {
      "inputs": [],
      "name": "renounceOwnership",
      "outputs": [],
      "stateMutability": "nonpayable",
      "type": "function"
    },
    {
      "inputs": [],
      "name": "splitPools",
      "outputs": [
        {
          "internalType": "bool",
          "name": "",
          "type": "bool"
        }
      ],
      "stateMutability": "view",
      "type": "function",
      "constant": true
    },
    {
      "inputs": [],
      "name": "stableToken",
      "outputs": [
        {
          "internalType": "address",
          "name": "",
          "type": "address"
        }
      ],
      "stateMutability": "view",
      "type": "function",
      "constant": true
    },
    {
      "inputs": [],
      "name": "stableTokenSplit",
      "outputs": [
        {
          "internalType": "uint256",
          "name": "",
          "type": "uint256"
        }
      ],
      "stateMutability": "view",
      "type": "function",
      "constant": true
    },
    {
      "inputs": [
        {
          "internalType": "address",
          "name": "",
          "type": "address"
        }
      ],
      "name": "stakes",
      "outputs": [
        {
          "internalType": "address",
          "name": "",
          "type": "address"
        }
      ],
      "stateMutability": "view",
      "type": "function",
      "constant": true
    },
    {
      "inputs": [
        {
          "internalType": "address",
          "name": "newOwner",
          "type": "address"
        }
      ],
      "name": "transferOwnership",
      "outputs": [],
      "stateMutability": "nonpayable",
      "type": "function"
    },
    {
      "inputs": [],
      "name": "treasuryVester",
      "outputs": [
        {
          "internalType": "address",
          "name": "",
          "type": "address"
        }
      ],
      "stateMutability": "view",
      "type": "function",
      "constant": true
    },
    {
      "inputs": [],
      "name": "unallocatedParty",
      "outputs": [
        {
          "internalType": "uint256",
          "name": "",
          "type": "uint256"
        }
      ],
      "stateMutability": "view",
      "type": "function",
      "constant": true
    },
    {
      "inputs": [],
      "name": "wavax",
      "outputs": [
        {
          "internalType": "address",
          "name": "",
          "type": "address"
        }
      ],
      "stateMutability": "view",
      "type": "function",
      "constant": true
    },
    {
      "inputs": [
        {
          "internalType": "address",
          "name": "",
          "type": "address"
        }
      ],
      "name": "weights",
      "outputs": [
        {
          "internalType": "uint256",
          "name": "",
          "type": "uint256"
        }
      ],
      "stateMutability": "view",
      "type": "function",
      "constant": true
    },
    {
      "inputs": [
        {
          "internalType": "address",
          "name": "pair",
          "type": "address"
        }
      ],
      "name": "isWhitelisted",
      "outputs": [
        {
          "internalType": "bool",
          "name": "",
          "type": "bool"
        }
      ],
      "stateMutability": "view",
      "type": "function",
      "constant": true
    },
    {
      "inputs": [
        {
          "internalType": "address",
          "name": "pair",
          "type": "address"
        }
      ],
      "name": "isAvaxPair",
      "outputs": [
        {
          "internalType": "bool",
          "name": "",
          "type": "bool"
        }
      ],
      "stateMutability": "view",
      "type": "function",
      "constant": true
    },
    {
      "inputs": [
        {
          "internalType": "address",
          "name": "pair",
          "type": "address"
        }
      ],
      "name": "isPartyPair",
      "outputs": [
        {
          "internalType": "bool",
          "name": "",
          "type": "bool"
        }
      ],
      "stateMutability": "view",
      "type": "function",
      "constant": true
    },
    {
      "inputs": [
        {
          "internalType": "address",
          "name": "pair",
          "type": "address"
        }
      ],
      "name": "isStableTokenPair",
      "outputs": [
        {
          "internalType": "bool",
          "name": "",
          "type": "bool"
        }
      ],
      "stateMutability": "view",
      "type": "function",
      "constant": true
    },
    {
      "inputs": [
        {
          "internalType": "address",
          "name": "avaxPartyPair_",
          "type": "address"
        }
      ],
      "name": "setavaxPartyPair",
      "outputs": [],
      "stateMutability": "nonpayable",
      "type": "function"
    },
    {
      "inputs": [
        {
          "internalType": "address",
          "name": "avaxStableTokenPair_",
          "type": "address"
        }
      ],
      "name": "setavaxStableTokenPair",
      "outputs": [],
      "stateMutability": "nonpayable",
      "type": "function"
    },
    {
      "inputs": [
        {
          "internalType": "address",
          "name": "pair",
          "type": "address"
        },
        {
          "internalType": "uint256",
          "name": "weight",
          "type": "uint256"
        }
      ],
      "name": "addWhitelistedPool",
      "outputs": [],
      "stateMutability": "nonpayable",
      "type": "function"
    },
    {
      "inputs": [
        {
          "internalType": "address",
          "name": "pair",
          "type": "address"
        }
      ],
      "name": "removeWhitelistedPool",
      "outputs": [],
      "stateMutability": "nonpayable",
      "type": "function"
    },
    {
      "inputs": [
        {
          "internalType": "address",
          "name": "pair",
          "type": "address"
        },
        {
          "internalType": "uint256",
          "name": "weight",
          "type": "uint256"
        }
      ],
      "name": "changeWeight",
      "outputs": [],
      "stateMutability": "nonpayable",
      "type": "function"
    },
    {
      "inputs": [
        {
          "internalType": "uint256",
          "name": "avaxSplit_",
          "type": "uint256"
        },
        {
          "internalType": "uint256",
          "name": "partySplit_",
          "type": "uint256"
        },
        {
          "internalType": "uint256",
          "name": "stableTokenSplit_",
          "type": "uint256"
        }
      ],
      "name": "activateFeeSplit",
      "outputs": [],
      "stateMutability": "nonpayable",
      "type": "function"
    },
    {
      "inputs": [],
      "name": "deactivateFeeSplit",
      "outputs": [],
      "stateMutability": "nonpayable",
      "type": "function"
    },
    {
      "inputs": [],
      "name": "calculateReturns",
      "outputs": [],
      "stateMutability": "nonpayable",
      "type": "function"
    },
    {
      "inputs": [],
      "name": "distributeTokens",
      "outputs": [],
      "stateMutability": "nonpayable",
      "type": "function"
    },
    {
      "inputs": [
        {
          "internalType": "uint256",
          "name": "pairIndex",
          "type": "uint256"
        }
      ],
      "name": "distributeTokensSinglePool",
      "outputs": [],
      "stateMutability": "nonpayable",
      "type": "function"
    },
    {
      "inputs": [],
      "name": "calculateAndDistribute",
      "outputs": [],
      "stateMutability": "nonpayable",
      "type": "function"
    },
    {
      "inputs": [],
      "name": "vestAllocation",
      "outputs": [],
      "stateMutability": "nonpayable",
      "type": "function"
    },
    {
      "inputs": [
        {
          "internalType": "address",
          "name": "treasuryVester_",
          "type": "address"
        }
      ],
      "name": "setTreasuryVester",
      "outputs": [],
      "stateMutability": "nonpayable",
      "type": "function"
    }
  ],
  "bytecode": "0x6080604052600060148190556015805460ff191690556017553480156200002557600080fd5b5060405162004c4738038062004c47833981016040819052620000489162000175565b60006200005462000154565b600080546001600160a01b0319166001600160a01b0383169081178255604051929350917f8be0079c531659141344cd1fd0a4f28419497f9722a3daafe3b4186f6b6457e0908290a350600180556001600160a01b03841615801590620000c357506001600160a01b03831615155b8015620000d857506001600160a01b03811615155b620001005760405162461bcd60e51b8152600401620000f790620001d1565b60405180910390fd5b600e80546001600160a01b039586166001600160a01b031991821617909155600f8054948616948216949094179093556010805492851692841692909217909155601380549190931691161790556200022e565b3390565b80516001600160a01b03811681146200017057600080fd5b919050565b600080600080608085870312156200018b578384fd5b620001968562000158565b9350620001a66020860162000158565b9250620001b66040860162000158565b9150620001c66060860162000158565b905092959194509250565b60208082526035908201527f4c504d3a3a636f6e7374727563746f723a20417267756d656e74732063616e2760408201527f7420626520746865207a65726f20616464726573730000000000000000000000606082015260800190565b614a09806200023e6000396000f3fe60806040523480156200001157600080fd5b5060043610620002445760003560e01c80637615d88b1162000141578063a7cac84611620000bd578063ded21b1a1162000087578063ded21b1a1462000463578063f2fde38b146200047a578063f8c19ad91462000491578063f8d779fc146200049b578063fbfd814714620004a55762000244565b8063a7cac8461462000414578063a8cb13df146200042b578063a9d75b2b1462000442578063aa8b0670146200044c5762000244565b80638da5cb5b116200010b5780638da5cb5b14620003d5578063933733cf14620003df578063994b1e4014620003e95780639ab1b4841462000400578063a325f4c9146200040a5762000244565b80637615d88b1462000393578063796cd9ba146200039d5780637d8a6c2314620003b45780638c31ceff14620003be5762000244565b806335c62bc211620001d15780634b89ab32116200019b5780634b89ab32146200033a5780634ce6f32f14620003515780635278f89c146200036857806369b2fbf51462000372578063715018a614620003895762000244565b806335c62bc214620002e95780633af32abf146200030257806346e16a1114620003195780634ad0008214620003305762000244565b80631709f8f011620002135780631709f8f014620002965780631bd172d014620002bc5780632be40cbe14620002d5578063354284f214620002df5762000244565b80630ff023981462000249578063117be4c2146200026b578063150895db146200027557806316934fc4146200027f575b600080fd5b62000253620004af565b60405162000262919062002490565b60405180910390f35b62000253620004be565b62000253620004cd565b6200025362000290366004620023a4565b620004dc565b620002ad620002a7366004620023a4565b620004f7565b604051620002629190620024d7565b620002d3620002cd366004620023e2565b6200050c565b005b620002ad620005d2565b62000253620005db565b620002f3620005ea565b6040516200026291906200309f565b620002ad62000313366004620023a4565b620005f0565b620002d36200032a366004620023e2565b62000627565b620002d3620009c0565b620002d36200034b36600462002464565b62001143565b620002d362000362366004620023a4565b62001213565b620002d3620012a4565b620002d362000383366004620023a4565b62001459565b620002d3620014ea565b620002f36200157a565b620002d3620003ae36600462002432565b62001580565b620002f36200188e565b620002ad620003cf366004620023a4565b62001894565b62000253620018a3565b620002d3620018b2565b620002d3620003fa366004620023a4565b620018c8565b620002d362001959565b620002d362001c25565b620002f362000425366004620023a4565b62001cab565b620002d36200043c366004620023a4565b62001cbd565b6200025362001f7e565b620002f36200045d36600462002432565b62001f8d565b620002ad62000474366004620023a4565b62001faf565b620002d36200048b366004620023a4565b62001fbe565b6200025362002088565b620002f362002097565b620002f36200209d565b6012546001600160a01b031681565b600e546001600160a01b031681565b6013546001600160a01b031681565b6008602052600090815260409020546001600160a01b031681565b600062000506600483620020a3565b92915050565b62000516620020c1565b6001600160a01b031662000529620018a3565b6001600160a01b0316146200055b5760405162461bcd60e51b8152600401620005529062002b03565b60405180910390fd5b6001600160a01b038216600090815260096020526040902054620005935760405162461bcd60e51b8152600401620005529062002a39565b60008111620005b65760405162461bcd60e51b8152600401620005529062002803565b6001600160a01b03909116600090815260096020526040902055565b600a5460ff1681565b600f546001600160a01b031681565b60145481565b6000620005ff600283620020a3565b8062000613575062000613600483620020a3565b8062000506575062000506600683620020a3565b62000631620020c1565b6001600160a01b031662000644620018a3565b6001600160a01b0316146200066d5760405162461bcd60e51b8152600401620005529062002b03565b60155460ff1615620006935760405162461bcd60e51b8152600401620005529062002d81565b6001600160a01b038216620006bc5760405162461bcd60e51b8152600401620005529062002cd3565b620006c782620005f0565b15620006e75760405162461bcd60e51b8152600401620005529062002d30565b600081116200070a5760405162461bcd60e51b8152600401620005529062002ba1565b6000826001600160a01b0316630dfe16816040518163ffffffff1660e01b815260040160206040518083038186803b1580156200074657600080fd5b505afa1580156200075b573d6000803e3d6000fd5b505050506040513d601f19601f82011682018060405250810190620007819190620023c3565b90506000836001600160a01b031663d21220a76040518163ffffffff1660e01b815260040160206040518083038186803b158015620007bf57600080fd5b505afa158015620007d4573d6000803e3d6000fd5b505050506040513d601f19601f82011682018060405250810190620007fa9190620023c3565b9050806001600160a01b0316826001600160a01b03161415620008315760405162461bcd60e51b815260040162000552906200304c565b600f546040516000916001600160a01b031690869062000851906200232f565b6200085e929190620024a4565b604051809103906000f0801580156200087b573d6000803e3d6000fd5b506001600160a01b03868116600090815260086020908152604080832080546001600160a01b03191686861617905560099091529020869055600f549192509081169084161480620008da5750600f546001600160a01b038381169116145b156200091257620008ed600486620020c5565b6200090c5760405162461bcd60e51b8152600401620005529062002c3c565b620009a6565b600e546001600160a01b03848116911614806200093c5750600e546001600160a01b038381169116145b156200094f57620008ed600286620020c5565b6010546001600160a01b03848116911614806200097957506010546001600160a01b038381169116145b156200098c57620008ed600686620020c5565b60405162461bcd60e51b81526004016200055290620029d1565b601454620009b6906001620020dc565b6014555050505050565b60155460ff1615620009e65760405162461bcd60e51b81526004016200055290620025e0565b60006017541162000a0b5760405162461bcd60e51b8152600401620005529062002b38565b600062000a196004620020ea565b111562000a4b576011546001600160a01b031662000a4b5760405162461bcd60e51b81526004016200055290620027b5565b600062000a596006620020ea565b111562000a8b576012546001600160a01b031662000a8b5760405162461bcd60e51b8152600401620005529062002524565b60145467ffffffffffffffff81111562000ab557634e487b7160e01b600052604160045260246000fd5b60405190808252806020026020018201604052801562000adf578160200160208202803683370190505b50805162000af6916016916020909101906200233d565b506000806000805b62000b0a6002620020ea565b81101562000ba557600062000b21600283620020f7565b6001600160a01b03811660009081526009602052604081205491925060019162000b4d90839062002105565b9050806016858154811062000b7257634e487b7160e01b600052603260045260246000fd5b60009182526020909120015562000b8a8782620020dc565b9650505050808062000b9c9062003120565b91505062000afe565b50600062000bb46004620020ea565b111562000c7e5760005b62000bca6004620020ea565b81101562000c7c57600062000be1600483620020f7565b6001600160a01b03811660009081526009602052604081205491925060019162000c0d90839062002105565b905080601662000c1e6002620020ea565b62000c2a9087620030a8565b8154811062000c4957634e487b7160e01b600052603260045260246000fd5b60009182526020909120015562000c618682620020dc565b9550505050808062000c739062003120565b91505062000bbe565b505b600062000c8c6006620020ea565b111562000d6e5760005b62000ca26006620020ea565b81101562000d6c57600062000cb9600683620020f7565b6001600160a01b03811660009081526009602052604081205491925060019162000ce590839062002105565b905080601662000cf66004620020ea565b62000d026002620020ea565b62000d0e9088620030a8565b62000d1a9190620030a8565b8154811062000d3957634e487b7160e01b600052603260045260246000fd5b60009182526020909120015562000d518582620020dc565b9450505050808062000d639062003120565b91505062000c96565b505b600a5460009060ff16156200107d57600062000da5606462000d9e600b546017546200210590919063ffffffff16565b9062002113565b9050600062000dc8606462000d9e600c546017546200210590919063ffffffff16565b9050600062000deb606462000d9e600d546017546200210590919063ffffffff16565b905060005b62000dfc6002620020ea565b81101562000ea257600062000e4c8962000d9e876016868154811062000e3257634e487b7160e01b600052603260045260246000fd5b90600052602060002001546200210590919063ffffffff16565b9050806016838154811062000e7157634e487b7160e01b600052603260045260246000fd5b60009182526020909120015562000e898682620020dc565b955050808062000e999062003120565b91505062000df0565b50600062000eb16004620020ea565b111562000f835760005b62000ec76004620020ea565b81101562000f8157600062000f148862000d9e86601662000ee96002620020ea565b62000ef59088620030a8565b8154811062000e3257634e487b7160e01b600052603260045260246000fd5b905080601662000f256002620020ea565b62000f319085620030a8565b8154811062000f5057634e487b7160e01b600052603260045260246000fd5b60009182526020909120015562000f688682620020dc565b955050808062000f789062003120565b91505062000ebb565b505b600062000f916006620020ea565b1115620010745760005b62000fa76006620020ea565b8110156200107257600062000fed8762000d9e85601662000fc96004620020ea565b62000fd56002620020ea565b62000fe19089620030a8565b62000ef59190620030a8565b905080601662000ffe6004620020ea565b6200100a6002620020ea565b620010169086620030a8565b620010229190620030a8565b815481106200104157634e487b7160e01b600052603260045260246000fd5b600091825260209091200155620010598682620020dc565b9550508080620010699062003120565b91505062000f9b565b505b50505062001130565b60006200109783620010908787620020dc565b90620020dc565b905060005b6016548110156200112d576000620010d78362000d9e6017546016868154811062000e3257634e487b7160e01b600052603260045260246000fd5b90508060168381548110620010fc57634e487b7160e01b600052603260045260246000fd5b600091825260209091200155620011148482620020dc565b9350508080620011249062003120565b9150506200109c565b50505b50506015805460ff191660011790555050565b6200114d620020c1565b6001600160a01b031662001160620018a3565b6001600160a01b031614620011895760405162461bcd60e51b8152600401620005529062002b03565b6200119a81620010908585620020dc565b606414620011bc5760405162461bcd60e51b8152600401620005529062002c84565b8260641480620011cc5750816064145b80620011d85750806064145b15620011f85760405162461bcd60e51b8152600401620005529062002bef565b600a805460ff19166001179055600b92909255600c55600d55565b6200121d620020c1565b6001600160a01b031662001230620018a3565b6001600160a01b031614620012595760405162461bcd60e51b8152600401620005529062002b03565b6001600160a01b038116620012825760405162461bcd60e51b8152600401620005529062002974565b601280546001600160a01b0319166001600160a01b0392909216919091179055565b60026001541415620012ca5760405162461bcd60e51b8152600401620005529062002f1b565b600260015560175415620012f25760405162461bcd60e51b8152600401620005529062002907565b601360009054906101000a90046001600160a01b03166001600160a01b0316634e71d92d6040518163ffffffff1660e01b8152600401602060405180830381600087803b1580156200134357600080fd5b505af115801562001358573d6000803e3d6000fd5b505050506040513d601f19601f820116820180604052508101906200137e91906200244b565b6017819055620013a25760405162461bcd60e51b8152600401620005529062002dfc565b600f546040516370a0823160e01b81526000916001600160a01b0316906370a0823190620013d590309060040162002490565b60206040518083038186803b158015620013ee57600080fd5b505afa15801562001403573d6000803e3d6000fd5b505050506040513d601f19601f820116820180604052508101906200142991906200244b565b9050601754811015620014505760405162461bcd60e51b81526004016200055290620028b4565b60175560018055565b62001463620020c1565b6001600160a01b031662001476620018a3565b6001600160a01b0316146200149f5760405162461bcd60e51b8152600401620005529062002b03565b6001600160a01b038116620014c85760405162461bcd60e51b8152600401620005529062002ff6565b601180546001600160a01b0319166001600160a01b0392909216919091179055565b620014f4620020c1565b6001600160a01b031662001507620018a3565b6001600160a01b031614620015305760405162461bcd60e51b8152600401620005529062002b03565b600080546040516001600160a01b03909116907f8be0079c531659141344cd1fd0a4f28419497f9722a3daafe3b4186f6b6457e0908390a3600080546001600160a01b0319169055565b600c5481565b60026001541415620015a65760405162461bcd60e51b8152600401620005529062002f1b565b600260015560155460ff16620015d05760405162461bcd60e51b815260040162000552906200269c565b6014548110620015f45760405162461bcd60e51b8152600401620005529062002f52565b6000620016026002620020ea565b8210156200164057600860006200161b600285620020f7565b6001600160a01b0390811682526020820192909252604001600020541690506200170e565b6200164c6002620020ea565b82101580156200167e5750620016636004620020ea565b6200166f6002620020ea565b6200167b9190620030a8565b82105b15620016ad57600860006200161b620016986002620020ea565b620016a4908662003106565b600490620020f7565b60086000620016ee620016c16004620020ea565b620016cd6002620020ea565b620016d9908762003106565b620016e5919062003106565b600690620020f7565b6001600160a01b0390811682526020820192909252604001600020541690505b6000601683815481106200173257634e487b7160e01b600052603260045260246000fd5b90600052602060002001549050600081111562001885576000601684815481106200176d57634e487b7160e01b600052603260045260246000fd5b600091825260209091200155600f5460405163a9059cbb60e01b81526001600160a01b039091169063a9059cbb90620017ad9085908590600401620024be565b602060405180830381600087803b158015620017c857600080fd5b505af1158015620017dd573d6000803e3d6000fd5b505050506040513d601f19601f8201168201806040525081019062001803919062002410565b620018225760405162461bcd60e51b815260040162000552906200276f565b604051633c6b16ab60e01b81526001600160a01b03831690633c6b16ab90620018509084906004016200309f565b600060405180830381600087803b1580156200186b57600080fd5b505af115801562001880573d6000803e3d6000fd5b505050505b50506001805550565b600b5481565b600062000506600283620020a3565b6000546001600160a01b031690565b620018bc620009c0565b620018c662001959565b565b620018d2620020c1565b6001600160a01b0316620018e5620018a3565b6001600160a01b0316146200190e5760405162461bcd60e51b8152600401620005529062002b03565b6001600160a01b038116620019375760405162461bcd60e51b8152600401620005529062002578565b601380546001600160a01b0319166001600160a01b0392909216919091179055565b600260015414156200197f5760405162461bcd60e51b8152600401620005529062002f1b565b600260015560155460ff16620019a95760405162461bcd60e51b8152600401620005529062002e59565b6015805460ff19169055600080805b60165481101562001c1757620019cf6002620020ea565b81101562001a0d5760086000620019e8600284620020f7565b6001600160a01b03908116825260208201929092526040016000205416925062001abd565b62001a196002620020ea565b811015801562001a4b575062001a306002620020ea565b62001a3c6004620020ea565b62001a489190620030a8565b81105b1562001a715760086000620019e862001a656002620020ea565b620016a4908562003106565b6008600062001a9d62001a856004620020ea565b62001a916002620020ea565b620016d9908662003106565b6001600160a01b0390811682526020820192909252604001600020541692505b6016818154811062001adf57634e487b7160e01b600052603260045260246000fd5b90600052602060002001549150600082111562001c0257600f5460405163a9059cbb60e01b81526001600160a01b039091169063a9059cbb9062001b2a9086908690600401620024be565b602060405180830381600087803b15801562001b4557600080fd5b505af115801562001b5a573d6000803e3d6000fd5b505050506040513d601f19601f8201168201806040525081019062001b80919062002410565b62001b9f5760405162461bcd60e51b815260040162000552906200276f565b604051633c6b16ab60e01b81526001600160a01b03841690633c6b16ab9062001bcd9085906004016200309f565b600060405180830381600087803b15801562001be857600080fd5b505af115801562001bfd573d6000803e3d6000fd5b505050505b8062001c0e8162003120565b915050620019b8565b505060006017555060018055565b62001c2f620020c1565b6001600160a01b031662001c42620018a3565b6001600160a01b03161462001c6b5760405162461bcd60e51b8152600401620005529062002b03565b600a5460ff1662001c905760405162461bcd60e51b8152600401620005529062002fa6565b600a805460ff191690556000600b819055600c819055600d55565b60096020526000908152604090205481565b62001cc7620020c1565b6001600160a01b031662001cda620018a3565b6001600160a01b03161462001d035760405162461bcd60e51b8152600401620005529062002b03565b60155460ff161562001d295760405162461bcd60e51b8152600401620005529062002a80565b62001d3481620005f0565b62001d535760405162461bcd60e51b815260040162000552906200271f565b6000816001600160a01b0316630dfe16816040518163ffffffff1660e01b815260040160206040518083038186803b15801562001d8f57600080fd5b505afa15801562001da4573d6000803e3d6000fd5b505050506040513d601f19601f8201168201806040525081019062001dca9190620023c3565b90506000826001600160a01b031663d21220a76040518163ffffffff1660e01b815260040160206040518083038186803b15801562001e0857600080fd5b505afa15801562001e1d573d6000803e3d6000fd5b505050506040513d601f19601f8201168201806040525081019062001e439190620023c3565b6001600160a01b03808516600090815260086020908152604080832080546001600160a01b03191690556009909152812055600f549192508381169116148062001e9a5750600f546001600160a01b038281169116145b1562001ed25762001ead60048462002121565b62001ecc5760405162461bcd60e51b8152600401620005529062002ecd565b62001f66565b600e546001600160a01b038381169116148062001efc5750600e546001600160a01b038281169116145b1562001f0f5762001ead60028462002121565b6010546001600160a01b038381169116148062001f3957506010546001600160a01b038281169116145b1562001f4c5762001ead60068462002121565b60405162461bcd60e51b8152600401620005529062002849565b60145462001f7690600162002138565b601455505050565b6010546001600160a01b031681565b6016818154811062001f9e57600080fd5b600091825260209091200154905081565b600062000506600683620020a3565b62001fc8620020c1565b6001600160a01b031662001fdb620018a3565b6001600160a01b031614620020045760405162461bcd60e51b8152600401620005529062002b03565b6001600160a01b0381166200202d5760405162461bcd60e51b8152600401620005529062002656565b600080546040516001600160a01b03808516939216917f8be0079c531659141344cd1fd0a4f28419497f9722a3daafe3b4186f6b6457e091a3600080546001600160a01b0319166001600160a01b0392909216919091179055565b6011546001600160a01b031681565b600d5481565b60175481565b6000620020ba836001600160a01b03841662002146565b9392505050565b3390565b6000620020ba836001600160a01b0384166200215e565b6000620020ba8284620030a8565b60006200050682620021ad565b6000620020ba8383620021b1565b6000620020ba8284620030e4565b6000620020ba8284620030c3565b6000620020ba836001600160a01b0384166200220e565b6000620020ba828462003106565b60009081526001919091016020526040902054151590565b60006200216c838362002146565b620021a45750815460018181018455600084815260208082209093018490558454848252828601909352604090209190915562000506565b50600062000506565b5490565b81546000908210620021d75760405162461bcd60e51b81526004016200055290620024e2565b826000018281548110620021fb57634e487b7160e01b600052603260045260246000fd5b9060005260206000200154905092915050565b60008181526001830160205260408120548015620023245760006200223560018362003106565b85549091506000906200224b9060019062003106565b905060008660000182815481106200227357634e487b7160e01b600052603260045260246000fd5b9060005260206000200154905080876000018481548110620022a557634e487b7160e01b600052603260045260246000fd5b600091825260208083209091019290925582815260018901909152604090208490558654879080620022e757634e487b7160e01b600052603160045260246000fd5b6001900381819060005260206000200160009055905586600101600087815260200190815260200160002060009055600194505050505062000506565b600091505062000506565b611866806200316e83390190565b8280548282559060005260206000209081019282156200237b579160200282015b828111156200237b5782518255916020019190600101906200235e565b50620023899291506200238d565b5090565b5b808211156200238957600081556001016200238e565b600060208284031215620023b6578081fd5b8135620020ba8162003154565b600060208284031215620023d5578081fd5b8151620020ba8162003154565b60008060408385031215620023f5578081fd5b8235620024028162003154565b946020939093013593505050565b60006020828403121562002422578081fd5b81518015158114620020ba578182fd5b60006020828403121562002444578081fd5b5035919050565b6000602082840312156200245d578081fd5b5051919050565b60008060006060848603121562002479578081fd5b505081359360208301359350604090920135919050565b6001600160a01b0391909116815260200190565b6001600160a01b0392831681529116602082015260400190565b6001600160a01b03929092168252602082015260400190565b901515815260200190565b60208082526022908201527f456e756d657261626c655365743a20696e646578206f7574206f6620626f756e604082015261647360f01b606082015260800190565b60208082526034908201527f4c504d3a3a63616c63756c61746552657475726e733a20417661782f5354414260408201527313115513d2d1538814185a5c881b9bdd081cd95d60621b606082015260800190565b60208082526042908201527f4c504d3a3a73657454726561737572795665737465723a20547265617375727960408201527f205665737465722063616e6e6f7420626520746865207a65726f206164647265606082015261737360f01b608082015260a00190565b60208082526050908201527f4c504d3a3a63616c63756c61746552657475726e733a2050726576696f75732060408201527f72657475726e73206e6f742064697374726962757465642e2043616c6c20646960608201526f7374726962757465546f6b656e73282960801b608082015260a00190565b60208082526026908201527f4f776e61626c653a206e6577206f776e657220697320746865207a65726f206160408201526564647265737360d01b606082015260800190565b60208082526058908201527f4c504d3a3a64697374726962757465546f6b656e7353696e676c65506f6f6c3a60408201527f2050726576696f75732072657475726e73206e6f7420616c6c6f63617465642e60608201527f2043616c6c2063616c63756c61746552657475726e7328290000000000000000608082015260a00190565b60208082526030908201527f4c504d3a3a72656d6f766557686974656c6973746564506f6f6c3a20506f6f6c60408201526f081b9bdd081dda1a5d195b1a5cdd195960821b606082015260800190565b60208082526026908201527f4c504d3a3a64697374726962757465546f6b656e733a205472616e736665722060408201526519985a5b195960d21b606082015260800190565b6020808252602e908201527f4c504d3a3a63616c63756c61746552657475726e733a20417661782f5041525460408201526d164814185a5c881b9bdd081cd95d60921b606082015260800190565b60208082526026908201527f4c504d3a3a6368616e67655765696768743a2052656d6f766520706f6f6c20696040820152651b9cdd19585960d21b606082015260800190565b60208082526045908201527f4c504d3a3a72656d6f766557686974656c6973746564506f6f6c3a204e6f204160408201527f5641582c205041525459206f7220535441424c45544f4b454e20696e20746865606082015264103830b4b960d91b608082015260a00190565b60208082526033908201527f4c504d3a3a76657374416c6c6f636174696f6e3a20496e73756666696369656e6040820152721d081410549516481d1c985b9cd9995c9c9959606a1b606082015260800190565b60208082526047908201527f4c504d3a3a76657374416c6c6f636174696f6e3a204f6c64205041525459206960408201527f7320756e616c6c6f63617465642e2043616c6c2064697374726962757465546f60608201526635b2b73994149760c91b608082015260a00190565b6020808252603c908201527f4c504d3a3a73657461766178537461626c65546f6b656e506169723a20506f6f60408201527f6c2063616e6e6f7420626520746865207a65726f206164647265737300000000606082015260800190565b60208082526042908201527f4c504d3a3a61646457686974656c6973746564506f6f6c3a204e6f204156415860408201527f2c205041525459206f7220535441424c45544f4b454e20696e2074686520706160608201526134b960f11b608082015260a00190565b60208082526027908201527f4c504d3a3a6368616e67655765696768743a2050616972206e6f742077686974604082015266195b1a5cdd195960ca1b606082015260800190565b6020808252605b908201527f4c504d3a3a72656d6f766557686974656c6973746564506f6f6c3a2043616e6e60408201527f6f742072656d6f766520706f6f6c206265747765656e2063616c63756c61746960608201527f6e6720616e6420646973747269627574696e672072657475726e730000000000608082015260a00190565b6020808252818101527f4f776e61626c653a2063616c6c6572206973206e6f7420746865206f776e6572604082015260600190565b60208082526043908201527f4c504d3a3a63616c63756c61746552657475726e733a204e6f2050415254592060408201527f746f20616c6c6f636174652e2043616c6c2076657374416c6c6f636174696f6e60608201526214149760e91b608082015260a00190565b6020808252602e908201527f4c504d3a3a61646457686974656c6973746564506f6f6c3a205765696768742060408201526d63616e6e6f74206265207a65726f60901b606082015260800190565b6020808252602d908201527f4c504d3a3a616374697661746546656553706c69743a2053706c69742063616e60408201526c02774206265203130302f302d3609c1b606082015260800190565b60208082526028908201527f4c504d3a3a61646457686974656c6973746564506f6f6c3a2050616972206164604082015267190819985a5b195960c21b606082015260800190565b6020808252602f908201527f4c504d3a3a616374697661746546656553706c69743a2053706c697420646f6560408201526e0736e27742061646420746f2031303608c1b606082015260800190565b60208082526038908201527f4c504d3a3a61646457686974656c6973746564506f6f6c3a20506f6f6c20636160408201527f6e6e6f7420626520746865207a65726f20616464726573730000000000000000606082015260800190565b60208082526031908201527f4c504d3a3a61646457686974656c6973746564506f6f6c3a20506f6f6c20616c6040820152701c9958591e481dda1a5d195b1a5cdd1959607a1b606082015260800190565b60208082526055908201527f4c504d3a3a61646457686974656c6973746564506f6f6c3a2043616e6e6f742060408201527f61646420706f6f6c206265747765656e2063616c63756c6174696e6720616e6460608201527420646973747269627574696e672072657475726e7360581b608082015260a00190565b6020808252603b908201527f4c504d3a3a76657374416c6c6f636174696f6e3a204e6f20504152545920746f60408201527f20636c61696d2e2054727920616761696e20746f6d6f72726f772e0000000000606082015260800190565b6020808252604e908201527f4c504d3a3a64697374726962757465546f6b656e733a2050726576696f75732060408201527f72657475726e73206e6f7420616c6c6f63617465642e2043616c6c2063616c6360608201526d756c61746552657475726e73282960901b608082015260a00190565b6020808252602e908201527f4c504d3a3a72656d6f766557686974656c6973746564506f6f6c3a205061697260408201526d081c995b5bdd994819985a5b195960921b606082015260800190565b6020808252601f908201527f5265656e7472616e637947756172643a207265656e7472616e742063616c6c00604082015260600190565b60208082526034908201527f4c504d3a3a64697374726962757465546f6b656e7353696e676c65506f6f6c3a60408201527320496e646578206f7574206f6620626f756e647360601b606082015260800190565b60208082526030908201527f4c504d3a3a6465616374697661746546656553706c69743a204665652073706c60408201526f1a5d081b9bdd081858dd1a5d985d195960821b606082015260800190565b60208082526036908201527f4c504d3a3a736574617661785061727479506169723a20506f6f6c2063616e6e6040820152756f7420626520746865207a65726f206164647265737360501b606082015260800190565b60208082526033908201527f4c504d3a3a61646457686974656c6973746564506f6f6c3a20546f6b656e732060408201527218d85b9b9bdd081899481a59195b9d1a58d85b606a1b606082015260800190565b90815260200190565b60008219821115620030be57620030be6200313e565b500190565b600082620030df57634e487b7160e01b81526012600452602481fd5b500490565b60008160001904831182151516156200310157620031016200313e565b500290565b6000828210156200311b576200311b6200313e565b500390565b60006000198214156200313757620031376200313e565b5060010190565b634e487b7160e01b600052601160045260246000fd5b6001600160a01b03811681146200316a57600080fd5b5056fe608060405260006004556000600555620151806006553480156200002257600080fd5b5060405162001866380380620018668339810160408190526200004591620000f7565b6001600090815562000056620000d6565b600180546001600160a01b0319166001600160a01b038316908117909155604051919250906000907f8be0079c531659141344cd1fd0a4f28419497f9722a3daafe3b4186f6b6457e0908290a350600280546001600160a01b039384166001600160a01b031991821617909155600380549290931691161790556200012e565b3390565b80516001600160a01b0381168114620000f257600080fd5b919050565b600080604083850312156200010a578182fd5b6200011583620000da565b91506200012560208401620000da565b90509250929050565b611728806200013e6000396000f3fe608060405234801561001057600080fd5b506004361061018d5760003560e01c80638980f11f116100de578063cd3daf9d11610097578063e9fad8ee11610071578063e9fad8ee146102ca578063ebe2b12b146102d2578063ecd9ba82146102da578063f2fde38b146102ed5761018d565b8063cd3daf9d146102b2578063d1af0c7d146102ba578063df136d65146102c25761018d565b80638980f11f146102565780638b876347146102695780638da5cb5b1461027c578063a694fc3a14610284578063c8f33c9114610297578063cc1a378f1461029f5761018d565b80633c6b16ab1161014b578063715018a611610125578063715018a61461022957806372f702f3146102315780637b0a47ee1461024657806380faa57d1461024e5761018d565b80633c6b16ab146101fb5780633d18b9121461020e57806370a08231146102165761018d565b80628cc262146101925780630700037d146101bb57806318160ddd146101ce5780631c1f78eb146101d65780632e1a7d4d146101de578063386a9525146101f3575b600080fd5b6101a56101a036600461117a565b610300565b6040516101b29190611639565b60405180910390f35b6101a56101c936600461117a565b610380565b6101a5610392565b6101a5610399565b6101f16101ec3660046111dd565b6103b7565b005b6101a5610503565b6101f16102093660046111dd565b610509565b6101f1610712565b6101a561022436600461117a565b610816565b6101f1610831565b6102396108ba565b6040516101b29190611276565b6101a56108c9565b6101a56108cf565b6101f1610264366004611194565b6108dd565b6101a561027736600461117a565b6109d0565b6102396109e2565b6101f16102923660046111dd565b6109f1565b6101a5610b24565b6101f16102ad3660046111dd565b610b2a565b6101a5610bea565b610239610c38565b6101a5610c47565b6101f1610c4d565b6101a5610c70565b6101f16102e836600461120d565b610c76565b6101f16102fb36600461117a565b610e2a565b6001600160a01b0381166000908152600a60209081526040808320546009909252822054610378919061037290670de0b6b3a76400009061036c9061034d90610347610bea565b90610eeb565b6001600160a01b0388166000908152600c602052604090205490610efe565b90610f0a565b90610f16565b90505b919050565b600a6020526000908152604090205481565b600b545b90565b60006103b2600654600554610efe90919063ffffffff16565b905090565b600260005414156103e35760405162461bcd60e51b81526004016103da906115c1565b60405180910390fd5b6002600055336103f1610bea565b6008556103fc6108cf565b6007556001600160a01b038116156104435761041781610300565b6001600160a01b0382166000908152600a60209081526040808320939093556008546009909152919020555b600082116104635760405162461bcd60e51b81526004016103da90611472565b600b546104709083610eeb565b600b55336000908152600c602052604090205461048d9083610eeb565b336000818152600c60205260409020919091556003546104b9916001600160a01b039091169084610f22565b336001600160a01b03167f7084f5476618d8e60b11ef0d7d3f06914655adb8793e28ff7f018d4c76d505d5836040516104f29190611639565b60405180910390a250506001600055565b60065481565b610511610f7d565b6001600160a01b03166105226109e2565b6001600160a01b0316146105485760405162461bcd60e51b81526004016103da9061149d565b6000610552610bea565b60085561055d6108cf565b6007556001600160a01b038116156105a45761057881610300565b6001600160a01b0382166000908152600a60209081526040808320939093556008546009909152919020555b60045442106105c3576006546105bb908390610f0a565b600555610606565b6004546000906105d39042610eeb565b905060006105ec60055483610efe90919063ffffffff16565b6006549091506106009061036c8684610f16565b60055550505b6002546040516370a0823160e01b81526000916001600160a01b0316906370a0823190610637903090600401611276565b60206040518083038186803b15801561064f57600080fd5b505afa158015610663573d6000803e3d6000fd5b505050506040513d601f19601f8201168201806040525081019061068791906111f5565b905061069e60065482610f0a90919063ffffffff16565b60055411156106bf5760405162461bcd60e51b81526004016103da906114d2565b4260078190556006546106d29190610f16565b6004556040517fde88a922e0d3b88b24e9623efeb464919c6bf9f66857a65e2bfcf2ce87a9433d90610705908590611639565b60405180910390a1505050565b600260005414156107355760405162461bcd60e51b81526004016103da906115c1565b600260005533610743610bea565b60085561074e6108cf565b6007556001600160a01b038116156107955761076981610300565b6001600160a01b0382166000908152600a60209081526040808320939093556008546009909152919020555b336000908152600a6020526040902054801561080d57336000818152600a60205260408120556002546107d4916001600160a01b039091169083610f22565b336001600160a01b03167fe2403640ba68fed3a2f88b7557551d1993f84b99bb10ff833f0cf8db0c5e0486826040516104f29190611639565b50506001600055565b6001600160a01b03166000908152600c602052604090205490565b610839610f7d565b6001600160a01b031661084a6109e2565b6001600160a01b0316146108705760405162461bcd60e51b81526004016103da9061149d565b6001546040516000916001600160a01b0316907f8be0079c531659141344cd1fd0a4f28419497f9722a3daafe3b4186f6b6457e0908390a3600180546001600160a01b0319169055565b6003546001600160a01b031681565b60055481565b60006103b242600454610f81565b6108e5610f7d565b6001600160a01b03166108f66109e2565b6001600160a01b03161461091c5760405162461bcd60e51b81526004016103da9061149d565b6002600054141561093f5760405162461bcd60e51b81526004016103da906115c1565b60026000556003546001600160a01b03838116911614156109725760405162461bcd60e51b81526004016103da906115f8565b61098e61097d6109e2565b6001600160a01b0384169083610f22565b7f8c1256b8896378cd5044f80c202f9772b9d77dc85c8a6eb51967210b09bfaa2882826040516109bf9291906112ef565b60405180910390a150506001600055565b60096020526000908152604090205481565b6001546001600160a01b031690565b60026000541415610a145760405162461bcd60e51b81526004016103da906115c1565b600260005533610a22610bea565b600855610a2d6108cf565b6007556001600160a01b03811615610a7457610a4881610300565b6001600160a01b0382166000908152600a60209081526040808320939093556008546009909152919020555b60008211610a945760405162461bcd60e51b81526004016103da90611404565b600b54610aa19083610f16565b600b55336000908152600c6020526040902054610abe9083610f16565b336000818152600c6020526040902091909155600354610aeb916001600160a01b03909116903085610f97565b336001600160a01b03167f9e71bc8eea02a63969f509818f2dafb9254532904319f9dbda79b67bd34a5f3d836040516104f29190611639565b60075481565b610b32610f7d565b6001600160a01b0316610b436109e2565b6001600160a01b031614610b695760405162461bcd60e51b81526004016103da9061149d565b6004544211610b8a5760405162461bcd60e51b81526004016103da9061133b565b60008111610baa5760405162461bcd60e51b81526004016103da90611540565b60068190556040517ffb46ca5a5e06d4540d6387b930a7c978bce0db5f449ec6b3f5d07c6e1d44f2d390610bdf908390611639565b60405180910390a150565b6000600b5460001415610c005750600854610396565b6103b2610c2f600b5461036c670de0b6b3a7640000610c29600554610c296007546103476108cf565b90610efe565b60085490610f16565b6002546001600160a01b031681565b60085481565b336000908152600c6020526040902054610c66906103b7565b610c6e610712565b565b60045481565b60026000541415610c995760405162461bcd60e51b81526004016103da906115c1565b600260005533610ca7610bea565b600855610cb26108cf565b6007556001600160a01b03811615610cf957610ccd81610300565b6001600160a01b0382166000908152600a60209081526040808320939093556008546009909152919020555b60008611610d195760405162461bcd60e51b81526004016103da90611404565b600b54610d269087610f16565b600b55336000908152600c6020526040902054610d439087610f16565b336000818152600c60205260409081902092909255600354915163d505accf60e01b81526001600160a01b039092169163d505accf91610d919130908b908b908b908b908b906004016112ae565b600060405180830381600087803b158015610dab57600080fd5b505af1158015610dbf573d6000803e3d6000fd5b5050600354610ddc92506001600160a01b03169050333089610f97565b336001600160a01b03167f9e71bc8eea02a63969f509818f2dafb9254532904319f9dbda79b67bd34a5f3d87604051610e159190611639565b60405180910390a25050600160005550505050565b610e32610f7d565b6001600160a01b0316610e436109e2565b6001600160a01b031614610e695760405162461bcd60e51b81526004016103da9061149d565b6001600160a01b038116610e8f5760405162461bcd60e51b81526004016103da906113be565b6001546040516001600160a01b038084169216907f8be0079c531659141344cd1fd0a4f28419497f9722a3daafe3b4186f6b6457e090600090a3600180546001600160a01b0319166001600160a01b0392909216919091179055565b6000610ef78284611699565b9392505050565b6000610ef7828461167a565b6000610ef7828461165a565b6000610ef78284611642565b610f788363a9059cbb60e01b8484604051602401610f419291906112ef565b60408051601f198184030181529190526020810180516001600160e01b03166001600160e01b031990931692909217909152610fbe565b505050565b3390565b6000818310610f905781610ef7565b5090919050565b610fb8846323b872dd60e01b858585604051602401610f419392919061128a565b50505050565b6000611013826040518060400160405280602081526020017f5361666545524332303a206c6f772d6c6576656c2063616c6c206661696c6564815250856001600160a01b031661104d9092919063ffffffff16565b805190915015610f78578080602001905181019061103191906111bd565b610f785760405162461bcd60e51b81526004016103da90611577565b606061105c8484600085611064565b949350505050565b6060824710156110865760405162461bcd60e51b81526004016103da9061142c565b61108f85611124565b6110ab5760405162461bcd60e51b81526004016103da90611509565b600080866001600160a01b031685876040516110c7919061125a565b60006040518083038185875af1925050503d8060008114611104576040519150601f19603f3d011682016040523d82523d6000602084013e611109565b606091505b509150915061111982828661112a565b979650505050505050565b3b151590565b60608315611139575081610ef7565b8251156111495782518084602001fd5b8160405162461bcd60e51b81526004016103da9190611308565b80356001600160a01b038116811461037b57600080fd5b60006020828403121561118b578081fd5b610ef782611163565b600080604083850312156111a6578081fd5b6111af83611163565b946020939093013593505050565b6000602082840312156111ce578081fd5b81518015158114610ef7578182fd5b6000602082840312156111ee578081fd5b5035919050565b600060208284031215611206578081fd5b5051919050565b600080600080600060a08688031215611224578081fd5b8535945060208601359350604086013560ff81168114611242578182fd5b94979396509394606081013594506080013592915050565b6000825161126c8184602087016116b0565b9190910192915050565b6001600160a01b0391909116815260200190565b6001600160a01b039384168152919092166020820152604081019190915260600190565b6001600160a01b0397881681529590961660208601526040850193909352606084019190915260ff16608083015260a082015260c081019190915260e00190565b6001600160a01b03929092168252602082015260400190565b60006020825282518060208401526113278160408501602087016116b0565b601f01601f19169190910160400192915050565b60208082526058908201527f50726576696f7573207265776172647320706572696f64206d7573742062652060408201527f636f6d706c657465206265666f7265206368616e67696e67207468652064757260608201527f6174696f6e20666f7220746865206e657720706572696f640000000000000000608082015260a00190565b60208082526026908201527f4f776e61626c653a206e6577206f776e657220697320746865207a65726f206160408201526564647265737360d01b606082015260800190565b6020808252600e908201526d043616e6e6f74207374616b6520360941b604082015260600190565b60208082526026908201527f416464726573733a20696e73756666696369656e742062616c616e636520666f6040820152651c8818d85b1b60d21b606082015260800190565b602080825260119082015270043616e6e6f74207769746864726177203607c1b604082015260600190565b6020808252818101527f4f776e61626c653a2063616c6c6572206973206e6f7420746865206f776e6572604082015260600190565b60208082526018908201527f50726f76696465642072657761726420746f6f20686967680000000000000000604082015260600190565b6020808252601d908201527f416464726573733a2063616c6c20746f206e6f6e2d636f6e7472616374000000604082015260600190565b6020808252601d908201527f526577617264206475726174696f6e2063616e2774206265207a65726f000000604082015260600190565b6020808252602a908201527f5361666545524332303a204552433230206f7065726174696f6e20646964206e6040820152691bdd081cdd58d8d9595960b21b606082015260800190565b6020808252601f908201527f5265656e7472616e637947756172643a207265656e7472616e742063616c6c00604082015260600190565b60208082526021908201527f43616e6e6f7420776974686472617720746865207374616b696e6720746f6b656040820152603760f91b606082015260800190565b90815260200190565b60008219821115611655576116556116dc565b500190565b60008261167557634e487b7160e01b81526012600452602481fd5b500490565b6000816000190483118215151615611694576116946116dc565b500290565b6000828210156116ab576116ab6116dc565b500390565b60005b838110156116cb5781810151838201526020016116b3565b83811115610fb85750506000910152565b634e487b7160e01b600052601160045260246000fdfea2646970667358221220321ac2a517b33ccaa6e7e3a7bd2621c0a48a4505707388fc8605e1ca1f30bb3764736f6c63430008000033a2646970667358221220417077c6608eca66754bd94351cd44a13d550a5a5e3628ba359d7cff197e7a5d64736f6c63430008000033",
  "immutableReferences": {},
  "source": "pragma solidity 0.8.0;\n\nimport \"@openzeppelin/contracts/access/Ownable.sol\";\nimport \"@openzeppelin/contracts/utils/math/SafeMath.sol\";\nimport \"@openzeppelin/contracts/utils/structs/EnumerableSet.sol\";\nimport \"@openzeppelin/contracts/security/ReentrancyGuard.sol\";\n\nimport \"./StakingRewards.sol\";\n\n/**\n * Contract to distribute PARTY tokens to whitelisted trading pairs. After deploying,\n * whitelist the desired pairs and set the avaxPartyPair. When initial administration\n * is complete. Ownership should be transferred to the Timelock governance contract.\n */\ncontract BoostedLiquidityPoolManager is Ownable, ReentrancyGuard {\n    using EnumerableSet for EnumerableSet.AddressSet;\n    using SafeMath for uint256;\n\n    // Whitelisted pairs that offer PARTY rewards\n    // Note: AVAX/PARTY is an AVAX pair\n    EnumerableSet.AddressSet private avaxPairs;\n    EnumerableSet.AddressSet private partyPairs;\n    EnumerableSet.AddressSet private stableTokenPairs;\n\n    // Maps pairs to their associated StakingRewards contract\n    mapping(address => address) public stakes;\n\n    // Map of pools to weights\n    mapping(address => uint256) public weights;\n\n    // Fields to control potential fee splitting\n    bool public splitPools;\n    uint256 public avaxSplit;\n    uint256 public partySplit;\n    uint256 public stableTokenSplit;\n\n    // Known contract addresses for WAVAX and PARTY\n    address public wavax;\n    address public party;\n    address public stableToken;\n\n    // AVAX/PARTY pair used to determine PARTY liquidity\n    address public avaxPartyPair;\n    address public avaxStableTokenPair;\n\n    // TreasuryVester contract that distributes PARTY\n    address public treasuryVester;\n\n    uint256 public numPools = 0;\n\n    bool private readyToDistribute = false;\n\n    // Tokens to distribute to each pool. Indexed by avaxPairs then partyPairs.\n    uint256[] public distribution;\n\n    uint256 public unallocatedParty = 0;\n\n    constructor(\n        address wavax_,\n        address party_,\n        address stableToken_,\n        address treasuryVester_\n    ) {\n        require(\n            wavax_ != address(0) &&\n                party_ != address(0) &&\n                treasuryVester_ != address(0),\n            \"LPM::constructor: Arguments can't be the zero address\"\n        );\n        wavax = wavax_;\n        party = party_;\n        stableToken = stableToken_;\n        treasuryVester = treasuryVester_;\n    }\n\n    /**\n     * Check if the given pair is a whitelisted pair\n     *\n     * Args:\n     *   pair: pair to check if whitelisted\n     *\n     * Return: True if whitelisted\n     */\n    function isWhitelisted(address pair) public view returns (bool) {\n        return\n            avaxPairs.contains(pair) ||\n            partyPairs.contains(pair) ||\n            stableTokenPairs.contains(pair);\n    }\n\n    /**\n     * Check if the given pair is a whitelisted AVAX pair. The AVAX/PARTY pair is\n     * considered an AVAX pair.\n     *\n     * Args:\n     *   pair: pair to check\n     *\n     * Return: True if whitelisted and pair contains AVAX\n     */\n    function isAvaxPair(address pair) external view returns (bool) {\n        return avaxPairs.contains(pair);\n    }\n\n    /**\n     * Check if the given pair is a whitelisted PARTY pair. The AVAX/PARTY pair is\n     * not considered a PARTY pair.\n     *\n     * Args:\n     *   pair: pair to check\n     *\n     * Return: True if whitelisted and pair contains PARTY but is not AVAX/PARTY pair\n     */\n    function isPartyPair(address pair) external view returns (bool) {\n        return partyPairs.contains(pair);\n    }\n\n    /**\n     * Check if the given pair is a whitelisted STABLE TOKEN pair. The AVAX/STABLETOKEN pair is\n     * not considered a STABLETOKEN pair.\n     *\n     * Args:\n     *   pair: pair to check\n     *\n     * Return: True if whitelisted and pair contains PARTY but is not AVAX/PARTY pair\n     */\n    function isStableTokenPair(address pair) external view returns (bool) {\n        return stableTokenPairs.contains(pair);\n    }\n\n    /**\n     * Sets the AVAX/PARTY pair. Pair's tokens must be AVAX and PARTY.\n     *\n     * Args:\n     *   pair: AVAX/PARTY pair\n     */\n    function setavaxPartyPair(address avaxPartyPair_) external onlyOwner {\n        require(\n            avaxPartyPair_ != address(0),\n            \"LPM::setavaxPartyPair: Pool cannot be the zero address\"\n        );\n        avaxPartyPair = avaxPartyPair_;\n    }\n\n    /**\n     * Sets the AVAX/STABLETOKEN pair. Pair's tokens must be AVAX and STABLETOKEN.\n     *\n     * Args:\n     *   pair: AVAX/STABLETOKEN pair\n     */\n    function setavaxStableTokenPair(address avaxStableTokenPair_)\n        external\n        onlyOwner\n    {\n        require(\n            avaxStableTokenPair_ != address(0),\n            \"LPM::setavaxStableTokenPair: Pool cannot be the zero address\"\n        );\n        avaxStableTokenPair = avaxStableTokenPair_;\n    }\n\n    /**\n     * Adds a new whitelisted liquidity pool pair. Generates a staking contract.\n     * Liquidity providers may stake this liquidity provider reward token and\n     * claim PARTY rewards proportional to their stake. Pair must contain either\n     * AVAX or PARTY. Associates a weight with the pair. Rewards are distributed\n     * to the pair proportionally based on its share of the total weight.\n     *\n     * Args:\n     *   pair: pair to whitelist\n     *   weight: how heavily to distribute rewards to this pool relative to other\n     *     pools\n     */\n    function addWhitelistedPool(address pair, uint256 weight)\n        external\n        onlyOwner\n    {\n        require(\n            !readyToDistribute,\n            \"LPM::addWhitelistedPool: Cannot add pool between calculating and distributing returns\"\n        );\n        require(\n            pair != address(0),\n            \"LPM::addWhitelistedPool: Pool cannot be the zero address\"\n        );\n        require(\n            isWhitelisted(pair) == false,\n            \"LPM::addWhitelistedPool: Pool already whitelisted\"\n        );\n        require(weight > 0, \"LPM::addWhitelistedPool: Weight cannot be zero\");\n\n        address token0 = IPartyPair(pair).token0();\n        address token1 = IPartyPair(pair).token1();\n\n        require(\n            token0 != token1,\n            \"LPM::addWhitelistedPool: Tokens cannot be identical\"\n        );\n\n        // Create the staking contract and associate it with the pair\n        address stakeContract = address(new StakingRewards(party, pair));\n        stakes[pair] = stakeContract;\n\n        weights[pair] = weight;\n\n        // Add as an AVAX or PARTY or STABLECOIN pair\n        if (token0 == party || token1 == party) {\n            require(\n                partyPairs.add(pair),\n                \"LPM::addWhitelistedPool: Pair add failed\"\n            );\n        } else if (token0 == wavax || token1 == wavax) {\n            require(\n                avaxPairs.add(pair),\n                \"LPM::addWhitelistedPool: Pair add failed\"\n            );\n        } else if (token0 == stableToken || token1 == stableToken) {\n            require(\n                stableTokenPairs.add(pair),\n                \"LPM::addWhitelistedPool: Pair add failed\"\n            );\n        } else {\n            revert(\n                \"LPM::addWhitelistedPool: No AVAX, PARTY or STABLETOKEN in the pair\"\n            );\n        }\n\n        numPools = numPools.add(1);\n    }\n\n    /**\n     * Delists a whitelisted pool. Liquidity providers will not receiving future rewards.\n     * Already vested funds can still be claimed. Re-whitelisting a delisted pool will\n     * deploy a new staking contract.\n     *\n     * Args:\n     *   pair: pair to remove from whitelist\n     */\n    function removeWhitelistedPool(address pair) external onlyOwner {\n        require(\n            !readyToDistribute,\n            \"LPM::removeWhitelistedPool: Cannot remove pool between calculating and distributing returns\"\n        );\n        require(\n            isWhitelisted(pair),\n            \"LPM::removeWhitelistedPool: Pool not whitelisted\"\n        );\n\n        address token0 = IPartyPair(pair).token0();\n        address token1 = IPartyPair(pair).token1();\n\n        stakes[pair] = address(0);\n        weights[pair] = 0;\n\n        if (token0 == party || token1 == party) {\n            require(\n                partyPairs.remove(pair),\n                \"LPM::removeWhitelistedPool: Pair remove failed\"\n            );\n        } else if (token0 == wavax || token1 == wavax) {\n            require(\n                avaxPairs.remove(pair),\n                \"LPM::removeWhitelistedPool: Pair remove failed\"\n            );\n        } else if (token0 == stableToken || token1 == stableToken) {\n            require(\n                stableTokenPairs.remove(pair),\n                \"LPM::removeWhitelistedPool: Pair remove failed\"\n            );\n        } else {\n            revert(\n                \"LPM::removeWhitelistedPool: No AVAX, PARTY or STABLETOKEN in the pair\"\n            );\n        }\n        numPools = numPools.sub(1);\n    }\n\n    /**\n     * Adjust the weight of an existing pool\n     *\n     * Args:\n     *   pair: pool to adjust weight of\n     *   weight: new weight\n     */\n    function changeWeight(address pair, uint256 weight) external onlyOwner {\n        require(weights[pair] > 0, \"LPM::changeWeight: Pair not whitelisted\");\n        require(weight > 0, \"LPM::changeWeight: Remove pool instead\");\n        weights[pair] = weight;\n    }\n\n    /**\n     * Activates the fee split mechanism. Divides rewards between AVAX\n     * and PARTY pools regardless of liquidity. AVAX and PARTY pools will\n     * receive a fixed proportion of the pool rewards. The AVAX and PARTY\n     * splits should correspond to percentage of rewards received for\n     * each and must add up to 100. For the purposes of fee splitting,\n     * the AVAX/PARTY pool is a PARTY pool. This method can also be used to\n     * change the split ratio after fee splitting has been activated.\n     *\n     * Args:\n     *   avaxSplit: Percent of rewards to distribute to AVAX pools\n     *   partySplit: Percent of rewards to distribute to PARTY pools\n     *   stableTokenSplit: Percent of rewards to distribute to STABLETOKEN pools\n     */\n    function activateFeeSplit(\n        uint256 avaxSplit_,\n        uint256 partySplit_,\n        uint256 stableTokenSplit_\n    ) external onlyOwner {\n        require(\n            avaxSplit_.add(partySplit_).add(stableTokenSplit_) == 100,\n            \"LPM::activateFeeSplit: Split doesn't add to 100\"\n        );\n        require(\n            !(avaxSplit_ == 100 ||\n                partySplit_ == 100 ||\n                stableTokenSplit_ == 100),\n            \"LPM::activateFeeSplit: Split can't be 100/0-0\"\n        );\n        splitPools = true;\n        avaxSplit = avaxSplit_;\n        partySplit = partySplit_;\n        stableTokenSplit = stableTokenSplit_;\n    }\n\n    /**\n     * Deactivates fee splitting.\n     */\n    function deactivateFeeSplit() external onlyOwner {\n        require(splitPools, \"LPM::deactivateFeeSplit: Fee split not activated\");\n        splitPools = false;\n        avaxSplit = 0;\n        partySplit = 0;\n        stableTokenSplit = 0;\n    }\n\n    /**\n     * Determine how the vested PARTY allocation will be distributed to the liquidity\n     * pool staking contracts. Must be called before distributeTokens(). Tokens are\n     * distributed to pools based on relative liquidity proportional to total\n     * liquidity. Should be called after vestAllocation()/\n     */\n    function calculateReturns() public {\n        require(\n            !readyToDistribute,\n            \"LPM::calculateReturns: Previous returns not distributed. Call distributeTokens()\"\n        );\n        require(\n            unallocatedParty > 0,\n            \"LPM::calculateReturns: No PARTY to allocate. Call vestAllocation().\"\n        );\n        if (partyPairs.length() > 0) {\n            require(\n                !(avaxPartyPair == address(0)),\n                \"LPM::calculateReturns: Avax/PARTY Pair not set\"\n            );\n        }\n        if (stableTokenPairs.length() > 0) {\n            require(\n                !(avaxStableTokenPair == address(0)),\n                \"LPM::calculateReturns: Avax/STABLETOKEN Pair not set\"\n            );\n        }\n\n        // Calculate total liquidity\n        distribution = new uint256[](numPools);\n        uint256 avaxLiquidity = 0;\n        uint256 partyLiquidity = 0;\n        uint256 stableTokenLiquidity = 0;\n\n        // Add liquidity from AVAX pairs\n        for (uint256 i = 0; i < avaxPairs.length(); i++) {\n            address pair = avaxPairs.at(i);\n            uint256 pairLiquidity = 1;\n            uint256 weightedLiquidity = pairLiquidity.mul(weights[pair]);\n            distribution[i] = weightedLiquidity;\n            avaxLiquidity = SafeMath.add(avaxLiquidity, weightedLiquidity);\n        }\n\n        // Add liquidity from PARTY pairs\n        if (partyPairs.length() > 0) {\n            for (uint256 i = 0; i < partyPairs.length(); i++) {\n                address pair = partyPairs.at(i);\n                uint256 pairLiquidity = 1;\n                uint256 weightedLiquidity = pairLiquidity.mul(weights[pair]);\n                distribution[i + avaxPairs.length()] = weightedLiquidity;\n                partyLiquidity = SafeMath.add(\n                    partyLiquidity,\n                    weightedLiquidity\n                );\n            }\n        }\n\n        // Add liquidity from STABLETOKEN pairs\n        if (stableTokenPairs.length() > 0) {\n            for (uint256 i = 0; i < stableTokenPairs.length(); i++) {\n                address pair = stableTokenPairs.at(i);\n                uint256 pairLiquidity = 1;\n                uint256 weightedLiquidity = pairLiquidity.mul(weights[pair]);\n                distribution[\n                    i + avaxPairs.length() + partyPairs.length()\n                ] = weightedLiquidity;\n                stableTokenLiquidity = SafeMath.add(\n                    stableTokenLiquidity,\n                    weightedLiquidity\n                );\n            }\n        }\n\n        // Calculate tokens for each pool\n        uint256 transferred = 0;\n        if (splitPools) {\n            uint256 avaxAllocatedParty = unallocatedParty.mul(avaxSplit).div(\n                100\n            );\n            uint256 partyAllocatedParty = unallocatedParty.mul(partySplit).div(\n                100\n            );\n            uint256 stableTokenAllocatedParty = unallocatedParty\n                .mul(stableTokenSplit)\n                .div(100);\n\n            for (uint256 i = 0; i < avaxPairs.length(); i++) {\n                uint256 pairTokens = distribution[i]\n                    .mul(avaxAllocatedParty)\n                    .div(avaxLiquidity);\n                distribution[i] = pairTokens;\n                transferred = transferred.add(pairTokens);\n            }\n\n            if (partyPairs.length() > 0) {\n                for (uint256 i = 0; i < partyPairs.length(); i++) {\n                    uint256 pairTokens = distribution[i + avaxPairs.length()]\n                        .mul(partyAllocatedParty)\n                        .div(partyLiquidity);\n                    distribution[i + avaxPairs.length()] = pairTokens;\n                    transferred = transferred.add(pairTokens);\n                }\n            }\n\n            if (stableTokenPairs.length() > 0) {\n                for (uint256 i = 0; i < stableTokenPairs.length(); i++) {\n                    uint256 pairTokens = distribution[\n                        i + avaxPairs.length() + partyPairs.length()\n                    ].mul(stableTokenAllocatedParty).div(stableTokenLiquidity);\n                    distribution[\n                        i + avaxPairs.length() + partyPairs.length()\n                    ] = pairTokens;\n                    transferred = transferred.add(pairTokens);\n                }\n            }\n        } else {\n            uint256 totalLiquidity = avaxLiquidity.add(partyLiquidity).add(\n                stableTokenLiquidity\n            );\n\n            for (uint256 i = 0; i < distribution.length; i++) {\n                uint256 pairTokens = distribution[i].mul(unallocatedParty).div(\n                    totalLiquidity\n                );\n                distribution[i] = pairTokens;\n                transferred = transferred.add(pairTokens);\n            }\n        }\n        readyToDistribute = true;\n    }\n\n    /**\n     * After token distributions have been calculated, actually distribute the vested PARTY\n     * allocation to the staking pools. Must be called after calculateReturns().\n     */\n    function distributeTokens() public nonReentrant {\n        require(\n            readyToDistribute,\n            \"LPM::distributeTokens: Previous returns not allocated. Call calculateReturns()\"\n        );\n        readyToDistribute = false;\n        address stakeContract;\n        uint256 rewardTokens;\n        for (uint256 i = 0; i < distribution.length; i++) {\n            if (i < avaxPairs.length()) {\n                stakeContract = stakes[avaxPairs.at(i)];\n            } else if (\n                i >= avaxPairs.length() &&\n                i < (partyPairs.length() + avaxPairs.length())\n            ) {\n                stakeContract = stakes[partyPairs.at(i - avaxPairs.length())];\n            } else {\n                stakeContract = stakes[\n                    stableTokenPairs.at(\n                        i - avaxPairs.length() - partyPairs.length()\n                    )\n                ];\n            }\n            rewardTokens = distribution[i];\n            if (rewardTokens > 0) {\n                require(\n                    IPARTY(party).transfer(stakeContract, rewardTokens),\n                    \"LPM::distributeTokens: Transfer failed\"\n                );\n                StakingRewards(stakeContract).notifyRewardAmount(rewardTokens);\n            }\n        }\n        unallocatedParty = 0;\n    }\n\n    /**\n     * Fallback for distributeTokens in case of gas overflow. Distributes PARTY tokens to a single pool.\n     * distibuteTokens() must still be called once to reset the contract state before calling vestAllocation.\n     *\n     * Args:\n     *   pairIndex: index of pair to distribute tokens to, AVAX pairs come first in the ordering\n     */\n    function distributeTokensSinglePool(uint256 pairIndex)\n        external\n        nonReentrant\n    {\n        require(\n            readyToDistribute,\n            \"LPM::distributeTokensSinglePool: Previous returns not allocated. Call calculateReturns()\"\n        );\n        require(\n            pairIndex < numPools,\n            \"LPM::distributeTokensSinglePool: Index out of bounds\"\n        );\n\n        address stakeContract;\n        if (pairIndex < avaxPairs.length()) {\n            stakeContract = stakes[avaxPairs.at(pairIndex)];\n        } else if (\n            pairIndex >= avaxPairs.length() &&\n            pairIndex < (avaxPairs.length() + partyPairs.length())\n        ) {\n            stakeContract = stakes[\n                partyPairs.at(pairIndex - avaxPairs.length())\n            ];\n        } else {\n            stakeContract = stakes[\n                stableTokenPairs.at(\n                    pairIndex - avaxPairs.length() - partyPairs.length()\n                )\n            ];\n        }\n\n        uint256 rewardTokens = distribution[pairIndex];\n        if (rewardTokens > 0) {\n            distribution[pairIndex] = 0;\n            require(\n                IPARTY(party).transfer(stakeContract, rewardTokens),\n                \"LPM::distributeTokens: Transfer failed\"\n            );\n            StakingRewards(stakeContract).notifyRewardAmount(rewardTokens);\n        }\n    }\n\n    /**\n     * Calculate pool token distribution and distribute tokens. Methods are separate\n     * to use risk of approaching the gas limit. There must be vested tokens to\n     * distribute, so this method should be called after vestAllocation.\n     */\n    function calculateAndDistribute() external {\n        calculateReturns();\n        distributeTokens();\n    }\n\n    /**\n     * Claim today's vested tokens for the manager to distribute. Moves tokens from\n     * the TreasuryVester to the LPM. Can only be called if all\n     * previously allocated tokens have been distributed. Call distributeTokens() if\n     * that is not the case. If any additional PARTY tokens have been transferred to this\n     * this contract, they will be marked as unallocated and prepared for distribution.\n     */\n    function vestAllocation() external nonReentrant {\n        require(\n            unallocatedParty == 0,\n            \"LPM::vestAllocation: Old PARTY is unallocated. Call distributeTokens().\"\n        );\n        unallocatedParty = ITreasuryVester(treasuryVester).claim();\n        require(\n            unallocatedParty > 0,\n            \"LPM::vestAllocation: No PARTY to claim. Try again tomorrow.\"\n        );\n\n        // Check if we've received extra tokens or didn't receive enough\n        uint256 actualBalance = IPARTY(party).balanceOf(address(this));\n        require(\n            actualBalance >= unallocatedParty,\n            \"LPM::vestAllocation: Insufficient PARTY transferred\"\n        );\n        unallocatedParty = actualBalance;\n    }\n\n    /**\n     * Calculate the equivalent of 1e18 of token A denominated in token B for a pair\n     * with reserveA and reserveB reserves.\n     *\n     * Args:\n     *   reserveA: reserves of token A\n     *   reserveB: reserves of token B\n     *\n     * Returns: the amount of token B equivalent to 1e18 of token A\n     */\n    function quote(uint256 reserveA, uint256 reserveB)\n        internal\n        pure\n        returns (uint256 amountB)\n    {\n        require(\n            reserveA > 0 && reserveB > 0,\n            \"PartyLibrary: INSUFFICIENT_LIQUIDITY\"\n        );\n        uint256 oneToken = 1e18;\n        amountB = SafeMath.div(SafeMath.mul(oneToken, reserveB), reserveA);\n    }\n\n    /**\n     * Sets the treasury vester address.\n     *\n     * Args:\n     *   address: Treasury Vester Address\n     */\n    function setTreasuryVester(address treasuryVester_) external onlyOwner {\n        require(\n            treasuryVester_ != address(0),\n            \"LPM::setTreasuryVester: Treasury Vester cannot be the zero address\"\n        );\n        treasuryVester = treasuryVester_;\n    }\n}\n\ninterface ITreasuryVester {\n    function claim() external returns (uint256);\n}\n\ninterface IPARTY {\n    function balanceOf(address account) external view returns (uint256);\n\n    function transfer(address dst, uint256 rawAmount) external returns (bool);\n}\n\ninterface IPartyPair {\n    function token0() external view returns (address);\n\n    function token1() external view returns (address);\n\n    function factory() external view returns (address);\n\n    function balanceOf(address owner) external view returns (uint256);\n\n    function transfer(address to, uint256 value) external returns (bool);\n\n    function burn(address to)\n        external\n        returns (uint256 amount0, uint256 amount1);\n\n    function getReserves()\n        external\n        view\n        returns (\n            uint112 _reserve0,\n            uint112 _reserve1,\n            uint32 _blockTimestampLast\n        );\n}\n",
  "sourcePath": "/home/pedro/Documents/projects/avalabs/party-swap/party-pinatas/contracts/BoostedLiquidityPoolManager.sol",
  "compiler": {
    "name": "solc",
    "version": "0.8.0+commit.c7dfd78e.Emscripten.clang"
  },
  "schemaVersion": "3.4.1",
  "updatedAt": "2021-11-12T18:15:41.300Z",
  "networkType": "ethereum",
  "devdoc": {
    "kind": "dev",
    "methods": {
      "owner()": {
        "details": "Returns the address of the current owner."
      },
      "renounceOwnership()": {
        "details": "Leaves the contract without owner. It will not be possible to call `onlyOwner` functions anymore. Can only be called by the current owner. NOTE: Renouncing ownership will leave the contract without an owner, thereby removing any functionality that is only available to the owner."
      },
      "transferOwnership(address)": {
        "details": "Transfers ownership of the contract to a new account (`newOwner`). Can only be called by the current owner."
      }
    },
    "version": 1
  },
  "userdoc": {
    "kind": "user",
    "methods": {
      "activateFeeSplit(uint256,uint256,uint256)": {
        "notice": "Activates the fee split mechanism. Divides rewards between AVAX and PARTY pools regardless of liquidity. AVAX and PARTY pools will receive a fixed proportion of the pool rewards. The AVAX and PARTY splits should correspond to percentage of rewards received for each and must add up to 100. For the purposes of fee splitting, the AVAX/PARTY pool is a PARTY pool. This method can also be used to change the split ratio after fee splitting has been activated. Args:   avaxSplit: Percent of rewards to distribute to AVAX pools   partySplit: Percent of rewards to distribute to PARTY pools   stableTokenSplit: Percent of rewards to distribute to STABLETOKEN pools"
      },
      "addWhitelistedPool(address,uint256)": {
        "notice": "Adds a new whitelisted liquidity pool pair. Generates a staking contract. Liquidity providers may stake this liquidity provider reward token and claim PARTY rewards proportional to their stake. Pair must contain either AVAX or PARTY. Associates a weight with the pair. Rewards are distributed to the pair proportionally based on its share of the total weight. Args:   pair: pair to whitelist   weight: how heavily to distribute rewards to this pool relative to other     pools"
      },
      "calculateAndDistribute()": {
        "notice": "Calculate pool token distribution and distribute tokens. Methods are separate to use risk of approaching the gas limit. There must be vested tokens to distribute, so this method should be called after vestAllocation."
      },
      "calculateReturns()": {
        "notice": "Determine how the vested PARTY allocation will be distributed to the liquidity pool staking contracts. Must be called before distributeTokens(). Tokens are distributed to pools based on relative liquidity proportional to total liquidity. Should be called after vestAllocation()/"
      },
      "changeWeight(address,uint256)": {
        "notice": "Adjust the weight of an existing pool Args:   pair: pool to adjust weight of   weight: new weight"
      },
      "deactivateFeeSplit()": {
        "notice": "Deactivates fee splitting."
      },
      "distributeTokens()": {
        "notice": "After token distributions have been calculated, actually distribute the vested PARTY allocation to the staking pools. Must be called after calculateReturns()."
      },
      "distributeTokensSinglePool(uint256)": {
        "notice": "Fallback for distributeTokens in case of gas overflow. Distributes PARTY tokens to a single pool. distibuteTokens() must still be called once to reset the contract state before calling vestAllocation. Args:   pairIndex: index of pair to distribute tokens to, AVAX pairs come first in the ordering"
      },
      "isAvaxPair(address)": {
        "notice": "Check if the given pair is a whitelisted AVAX pair. The AVAX/PARTY pair is considered an AVAX pair. Args:   pair: pair to check Return: True if whitelisted and pair contains AVAX"
      },
      "isPartyPair(address)": {
        "notice": "Check if the given pair is a whitelisted PARTY pair. The AVAX/PARTY pair is not considered a PARTY pair. Args:   pair: pair to check Return: True if whitelisted and pair contains PARTY but is not AVAX/PARTY pair"
      },
      "isStableTokenPair(address)": {
        "notice": "Check if the given pair is a whitelisted STABLE TOKEN pair. The AVAX/STABLETOKEN pair is not considered a STABLETOKEN pair. Args:   pair: pair to check Return: True if whitelisted and pair contains PARTY but is not AVAX/PARTY pair"
      },
      "isWhitelisted(address)": {
        "notice": "Check if the given pair is a whitelisted pair Args:   pair: pair to check if whitelisted Return: True if whitelisted"
      },
      "removeWhitelistedPool(address)": {
        "notice": "Delists a whitelisted pool. Liquidity providers will not receiving future rewards. Already vested funds can still be claimed. Re-whitelisting a delisted pool will deploy a new staking contract. Args:   pair: pair to remove from whitelist"
      },
      "setTreasuryVester(address)": {
        "notice": "Sets the treasury vester address. Args:   address: Treasury Vester Address"
      },
      "setavaxPartyPair(address)": {
        "notice": "Sets the AVAX/PARTY pair. Pair's tokens must be AVAX and PARTY. Args:   pair: AVAX/PARTY pair"
      },
      "setavaxStableTokenPair(address)": {
        "notice": "Sets the AVAX/STABLETOKEN pair. Pair's tokens must be AVAX and STABLETOKEN. Args:   pair: AVAX/STABLETOKEN pair"
      },
      "vestAllocation()": {
        "notice": "Claim today's vested tokens for the manager to distribute. Moves tokens from the TreasuryVester to the LPM. Can only be called if all previously allocated tokens have been distributed. Call distributeTokens() if that is not the case. If any additional PARTY tokens have been transferred to this this contract, they will be marked as unallocated and prepared for distribution."
      }
    },
    "notice": "Contract to distribute PARTY tokens to whitelisted trading pairs. After deploying, whitelist the desired pairs and set the avaxPartyPair. When initial administration is complete. Ownership should be transferred to the Timelock governance contract.",
    "version": 1
  }
}